{
  "contractName": "TicTacToe",
  "abi": [
    {
      "constant": true,
      "inputs": [],
      "name": "player2",
      "outputs": [
        {
          "name": "",
          "type": "address"
        }
      ],
      "payable": false,
      "stateMutability": "view",
      "type": "function"
    },
    {
      "constant": true,
      "inputs": [],
      "name": "boardSize",
      "outputs": [
        {
          "name": "",
          "type": "uint8"
        }
      ],
      "payable": false,
      "stateMutability": "view",
      "type": "function"
    },
    {
      "constant": true,
      "inputs": [],
      "name": "gameCost",
      "outputs": [
        {
          "name": "",
          "type": "uint256"
        }
      ],
      "payable": false,
      "stateMutability": "view",
      "type": "function"
    },
    {
      "constant": true,
      "inputs": [],
      "name": "player1",
      "outputs": [
        {
          "name": "",
          "type": "address"
        }
      ],
      "payable": false,
      "stateMutability": "view",
      "type": "function"
    },
    {
      "inputs": [],
      "payable": true,
      "stateMutability": "payable",
      "type": "constructor"
    },
    {
      "anonymous": false,
      "inputs": [
        {
          "indexed": false,
          "name": "player",
          "type": "address"
        }
      ],
      "name": "PlayerJoined",
      "type": "event"
    },
    {
      "anonymous": false,
      "inputs": [
        {
          "indexed": false,
          "name": "player",
          "type": "address"
        }
      ],
      "name": "NextPlayer",
      "type": "event"
    },
    {
      "anonymous": false,
      "inputs": [
        {
          "indexed": false,
          "name": "winner",
          "type": "address"
        }
      ],
      "name": "GameOverWithWin",
      "type": "event"
    },
    {
      "anonymous": false,
      "inputs": [],
      "name": "GameOverWithDraw",
      "type": "event"
    },
    {
      "anonymous": false,
      "inputs": [
        {
          "indexed": false,
          "name": "receiver",
          "type": "address"
        },
        {
          "indexed": false,
          "name": "amountInWei",
          "type": "uint256"
        }
      ],
      "name": "PayOutSuccess",
      "type": "event"
    },
    {
      "constant": false,
      "inputs": [],
      "name": "joinGame",
      "outputs": [],
      "payable": true,
      "stateMutability": "payable",
      "type": "function"
    },
    {
      "constant": true,
      "inputs": [],
      "name": "getBoard",
      "outputs": [
        {
          "name": "",
          "type": "address[3][3]"
        }
      ],
      "payable": false,
      "stateMutability": "view",
      "type": "function"
    },
    {
      "constant": false,
      "inputs": [],
      "name": "withdrawWin",
      "outputs": [],
      "payable": false,
      "stateMutability": "nonpayable",
      "type": "function"
    },
    {
      "constant": false,
      "inputs": [],
      "name": "emergencyCashout",
      "outputs": [],
      "payable": false,
      "stateMutability": "nonpayable",
      "type": "function"
    },
    {
      "constant": false,
      "inputs": [
        {
          "name": "x",
          "type": "uint8"
        },
        {
          "name": "y",
          "type": "uint8"
        }
      ],
      "name": "setStone",
      "outputs": [],
      "payable": false,
      "stateMutability": "nonpayable",
      "type": "function"
    }
  ],
  "bytecode": "0x608060405260036000806101000a81548160ff021916908360ff16021790555060b4600e5533600a60006101000a81548173ffffffffffffffffffffffffffffffffffffffff021916908373ffffffffffffffffffffffffffffffffffffffff16021790555067016345785d8a0000341415156100e4576040517f08c379a000000000000000000000000000000000000000000000000000000000815260040180806020018281038252601b8152602001807f5375626d697420736f6d65206d6f6e65792c2061626f7274696e67000000000081525060200191505060405180910390fd5b600e544201600f819055506116a3806100fe6000396000f3fe608060405260043610610099576000357c0100000000000000000000000000000000000000000000000000000000900463ffffffff168063216db3c21461009e5780633264a34b146100b557806359a5f12d1461012b5780637d3f907414610182578063c51d69f4146101cd578063cab896dc146101fe578063d30895e414610229578063d4f77b1c14610280578063fb8155031461028a575b600080fd5b3480156100aa57600080fd5b506100b36102a1565b005b3480156100c157600080fd5b506100ca6102d6565b604051808260036000925b8184101561011b5782846020020151600360200280838360005b8381101561010a5780820151818401526020810190506100ef565b5050505090500192600101926100d5565b9250505091505060405180910390f35b34801561013757600080fd5b5061014061038f565b604051808273ffffffffffffffffffffffffffffffffffffffff1673ffffffffffffffffffffffffffffffffffffffff16815260200191505060405180910390f35b34801561018e57600080fd5b506101cb600480360360408110156101a557600080fd5b81019080803560ff169060200190929190803560ff1690602001909291905050506103b5565b005b3480156101d957600080fd5b506101e2610c5a565b604051808260ff1660ff16815260200191505060405180910390f35b34801561020a57600080fd5b50610213610c6c565b6040518082815260200191505060405180910390f35b34801561023557600080fd5b5061023e610c78565b604051808273ffffffffffffffffffffffffffffffffffffffff1673ffffffffffffffffffffffffffffffffffffffff16815260200191505060405180910390f35b610288610c9e565b005b34801561029657600080fd5b5061029f610f65565b005b42600f541015156102b157600080fd5b600060029054906101000a900460ff1615156102cc57600080fd5b6102d46111ee565b565b6102de611625565b6001600380602002604051908101604052809291906000905b8282101561038657838260030201600380602002604051908101604052809291908260038015610372576020028201915b8160009054906101000a900473ffffffffffffffffffffffffffffffffffffffff1673ffffffffffffffffffffffffffffffffffffffff1681526020019060010190808311610328575b5050505050815260200190600101906102f7565b50505050905090565b600b60009054906101000a900473ffffffffffffffffffffffffffffffffffffffff1681565b600073ffffffffffffffffffffffffffffffffffffffff1660018360ff166003811015156103df57fe5b600302018260ff166003811015156103f357fe5b0160009054906101000a900473ffffffffffffffffffffffffffffffffffffffff1673ffffffffffffffffffffffffffffffffffffffff1614151561043757600080fd5b42600f5411151561044757600080fd5b600060029054906101000a900460ff16151561045f57fe5b6000809054906101000a900460ff1660ff168260ff1610151561047e57fe5b6000809054906101000a900460ff1660ff168160ff1610151561049d57fe5b601060009054906101000a900473ffffffffffffffffffffffffffffffffffffffff1673ffffffffffffffffffffffffffffffffffffffff163373ffffffffffffffffffffffffffffffffffffffff161415156104f957600080fd5b3360018360ff1660038110151561050c57fe5b600302018260ff1660038110151561052057fe5b0160006101000a81548173ffffffffffffffffffffffffffffffffffffffff021916908373ffffffffffffffffffffffffffffffffffffffff1602179055506000600181819054906101000a900460ff168092919060010191906101000a81548160ff021916908360ff16021790555050600e544201600f8190555060008090505b6000809054906101000a900460ff1660ff168160ff1610156106be57601060009054906101000a900473ffffffffffffffffffffffffffffffffffffffff1673ffffffffffffffffffffffffffffffffffffffff1660018260ff1660038110151561060957fe5b600302018360ff1660038110151561061d57fe5b0160009054906101000a900473ffffffffffffffffffffffffffffffffffffffff1673ffffffffffffffffffffffffffffffffffffffff16141515610661576106be565b60016000809054906101000a900460ff160360ff168160ff1614156106b1576106ab601060009054906101000a900473ffffffffffffffffffffffffffffffffffffffff1661146b565b50610c56565b80806001019150506105a2565b5060008090505b6000809054906101000a900460ff1660ff168110156107d857601060009054906101000a900473ffffffffffffffffffffffffffffffffffffffff1673ffffffffffffffffffffffffffffffffffffffff1660018460ff1660038110151561072957fe5b600302018260038110151561073a57fe5b0160009054906101000a900473ffffffffffffffffffffffffffffffffffffffff1673ffffffffffffffffffffffffffffffffffffffff1614151561077e576107d8565b60016000809054906101000a900460ff160360ff168114156107cb576107c5601060009054906101000a900473ffffffffffffffffffffffffffffffffffffffff1661146b565b50610c56565b80806001019150506106c5565b508060ff168260ff1614156108ff5760008090505b6000809054906101000a900460ff1660ff168110156108fd57601060009054906101000a900473ffffffffffffffffffffffffffffffffffffffff1673ffffffffffffffffffffffffffffffffffffffff1660018260038110151561084e57fe5b600302018260038110151561085f57fe5b0160009054906101000a900473ffffffffffffffffffffffffffffffffffffffff1673ffffffffffffffffffffffffffffffffffffffff161415156108a3576108fd565b60016000809054906101000a900460ff160360ff168114156108f0576108ea601060009054906101000a900473ffffffffffffffffffffffffffffffffffffffff1661146b565b50610c56565b80806001019150506107ed565b505b60016000809054906101000a900460ff160360ff1681830160ff161415610a4e5760008090505b6000809054906101000a900460ff1660ff16811015610a4c57601060009054906101000a900473ffffffffffffffffffffffffffffffffffffffff1673ffffffffffffffffffffffffffffffffffffffff1660018260038110151561098757fe5b600302018260016000809054906101000a900460ff160360ff16036003811015156109ae57fe5b0160009054906101000a900473ffffffffffffffffffffffffffffffffffffffff1673ffffffffffffffffffffffffffffffffffffffff161415156109f257610a4c565b60016000809054906101000a900460ff160360ff16811415610a3f57610a39601060009054906101000a900473ffffffffffffffffffffffffffffffffffffffff1661146b565b50610c56565b8080600101915050610926565b505b60026000809054906101000a900460ff1660ff160a60ff16600060019054906101000a900460ff1660ff161415610a8c57610a876111ee565b610c56565b600a60009054906101000a900473ffffffffffffffffffffffffffffffffffffffff1673ffffffffffffffffffffffffffffffffffffffff16601060009054906101000a900473ffffffffffffffffffffffffffffffffffffffff1673ffffffffffffffffffffffffffffffffffffffff161415610b6c57600b60009054906101000a900473ffffffffffffffffffffffffffffffffffffffff16601060006101000a81548173ffffffffffffffffffffffffffffffffffffffff021916908373ffffffffffffffffffffffffffffffffffffffff160217905550610bd0565b600a60009054906101000a900473ffffffffffffffffffffffffffffffffffffffff16601060006101000a81548173ffffffffffffffffffffffffffffffffffffffff021916908373ffffffffffffffffffffffffffffffffffffffff1602179055505b7f637351f91da430278368fb3e486c8c3da47b2e6ce4d28b2c404cb044702ca7e1601060009054906101000a900473ffffffffffffffffffffffffffffffffffffffff16604051808273ffffffffffffffffffffffffffffffffffffffff1673ffffffffffffffffffffffffffffffffffffffff16815260200191505060405180910390a15b5050565b6000809054906101000a900460ff1681565b67016345785d8a000081565b600a60009054906101000a900473ffffffffffffffffffffffffffffffffffffffff1681565b600073ffffffffffffffffffffffffffffffffffffffff16600b60009054906101000a900473ffffffffffffffffffffffffffffffffffffffff1673ffffffffffffffffffffffffffffffffffffffff16141515610cfb57600080fd5b6001600060026101000a81548160ff02191690831515021790555067016345785d8a000034141515610d2c57600080fd5b33600b60006101000a81548173ffffffffffffffffffffffffffffffffffffffff021916908373ffffffffffffffffffffffffffffffffffffffff1602179055507f31e760aa525306aba638a784082a013b6a1cc0a9a1789f3f22281c0453b10b1f600b60009054906101000a900473ffffffffffffffffffffffffffffffffffffffff16604051808273ffffffffffffffffffffffffffffffffffffffff1673ffffffffffffffffffffffffffffffffffffffff16815260200191505060405180910390a16000600243811515610e0057fe5b061415610e6f57600b60009054906101000a900473ffffffffffffffffffffffffffffffffffffffff16601060006101000a81548173ffffffffffffffffffffffffffffffffffffffff021916908373ffffffffffffffffffffffffffffffffffffffff160217905550610ed3565b600a60009054906101000a900473ffffffffffffffffffffffffffffffffffffffff16601060006101000a81548173ffffffffffffffffffffffffffffffffffffffff021916908373ffffffffffffffffffffffffffffffffffffffff1602179055505b600e544201600f819055507f637351f91da430278368fb3e486c8c3da47b2e6ce4d28b2c404cb044702ca7e1601060009054906101000a900473ffffffffffffffffffffffffffffffffffffffff16604051808273ffffffffffffffffffffffffffffffffffffffff1673ffffffffffffffffffffffffffffffffffffffff16815260200191505060405180910390a1565b6000600a60009054906101000a900473ffffffffffffffffffffffffffffffffffffffff1673ffffffffffffffffffffffffffffffffffffffff163373ffffffffffffffffffffffffffffffffffffffff1614156110d6576000600c54111515610fce57600080fd5b600c5490506000600c81905550600a60009054906101000a900473ffffffffffffffffffffffffffffffffffffffff1673ffffffffffffffffffffffffffffffffffffffff166108fc829081150290604051600060405180830381858888f19350505050158015611043573d6000803e3d6000fd5b507f90bf37582a972f42d976d59d0975eb37c8195d070c9229378de14a6da715d023600a60009054906101000a900473ffffffffffffffffffffffffffffffffffffffff1682604051808373ffffffffffffffffffffffffffffffffffffffff1673ffffffffffffffffffffffffffffffffffffffff1681526020018281526020019250505060405180910390a16111eb565b6000600d541115156110e757600080fd5b600d5490506000600d81905550600a60009054906101000a900473ffffffffffffffffffffffffffffffffffffffff1673ffffffffffffffffffffffffffffffffffffffff166108fc829081150290604051600060405180830381858888f1935050505015801561115c573d6000803e3d6000fd5b507f90bf37582a972f42d976d59d0975eb37c8195d070c9229378de14a6da715d023600b60009054906101000a900473ffffffffffffffffffffffffffffffffffffffff1682604051808373ffffffffffffffffffffffffffffffffffffffff1673ffffffffffffffffffffffffffffffffffffffff1681526020018281526020019250505060405180910390a15b50565b60008060026101000a81548160ff0219169083151502179055507f2207d46a2ba0f2acda06e9a222b40fd004e385738b3f868e63b2c0bfe4bc094c60405160405180910390a1600060023073ffffffffffffffffffffffffffffffffffffffff163181151561125957fe5b04905060001515600a60009054906101000a900473ffffffffffffffffffffffffffffffffffffffff1673ffffffffffffffffffffffffffffffffffffffff166108fc839081150290604051600060405180830381858888f19350505050151514156112d45780600c60008282540192505081905550611362565b7f90bf37582a972f42d976d59d0975eb37c8195d070c9229378de14a6da715d023600a60009054906101000a900473ffffffffffffffffffffffffffffffffffffffff1682604051808373ffffffffffffffffffffffffffffffffffffffff1673ffffffffffffffffffffffffffffffffffffffff1681526020018281526020019250505060405180910390a15b60001515600b60009054906101000a900473ffffffffffffffffffffffffffffffffffffffff1673ffffffffffffffffffffffffffffffffffffffff166108fc839081150290604051600060405180830381858888f19350505050151514156113da5780600d60008282540192505081905550611468565b7f90bf37582a972f42d976d59d0975eb37c8195d070c9229378de14a6da715d023600b60009054906101000a900473ffffffffffffffffffffffffffffffffffffffff1682604051808373ffffffffffffffffffffffffffffffffffffffff1673ffffffffffffffffffffffffffffffffffffffff1681526020018281526020019250505060405180910390a15b50565b60008060026101000a81548160ff0219169083151502179055507f8245a3876d42d9b0bdb7f24184c03fc24e3d8a079f492b1ec9ceae70b366edf981604051808273ffffffffffffffffffffffffffffffffffffffff1673ffffffffffffffffffffffffffffffffffffffff16815260200191505060405180910390a160003073ffffffffffffffffffffffffffffffffffffffff16319050600115158273ffffffffffffffffffffffffffffffffffffffff166108fc839081150290604051600060405180830381858888f1935050505015151415156115b557600a60009054906101000a900473ffffffffffffffffffffffffffffffffffffffff1673ffffffffffffffffffffffffffffffffffffffff168273ffffffffffffffffffffffffffffffffffffffff1614156115a85780600c819055506115b0565b80600d819055505b611621565b7f90bf37582a972f42d976d59d0975eb37c8195d070c9229378de14a6da715d0238282604051808373ffffffffffffffffffffffffffffffffffffffff1673ffffffffffffffffffffffffffffffffffffffff1681526020018281526020019250505060405180910390a15b5050565b610120604051908101604052806003905b61163e611654565b8152602001906001900390816116365790505090565b60606040519081016040528060039060208202803883398082019150509050509056fea165627a7a723058202ff342602349a69ccacc31591d88541a622c514525cc6795285cbf8722d362060029",
  "source": "pragma solidity ^0.5.0;\n\ncontract TicTacToe {\n    uint constant public gameCost = 0.1 ether;\n    //边界值\n    uint8 public boardSize = 3;\n    uint8 moveCounter;\n    bool gameActive;\n    //没必要设置为public，因为getter一次也只能获得一个位置，需要获取整个棋盘需要别的方法\n    address[3][3] board;\n    address payable public player1;\n    address payable public player2;\n\n    uint balanceToWithdrawPlayer1;\n    uint balanceToWithdrawPlayer2;\n\n    uint timeToReact = 3 minutes;\n    uint gameValidUntil;\n\n    //保证轮流游戏\n    address payable activePlayer;\n\n    event PlayerJoined(address player);\n    event NextPlayer(address player);\n    event GameOverWithWin(address winner);\n    event GameOverWithDraw();\n    event PayOutSuccess(address receiver, uint amountInWei);\n\n    constructor() public payable {\n        player1 = msg.sender;\n        //门票存储在合约内，所以智能合约本身可以存储以太币\n        require(msg.value == gameCost, \"Submit some money, aborting\");\n        gameValidUntil = now + timeToReact;\n    }\n\n    function joinGame() public payable {\n        require(player2 == address(0));\n        gameActive = true;\n\n        require(msg.value == gameCost);\n\n        player2 = msg.sender;\n\n        emit PlayerJoined(player2);\n\n        if(block.number % 2 == 0){\n            activePlayer = player2;\n        } else {\n            activePlayer = player1;\n        }\n\n        gameValidUntil = now + timeToReact;\n        emit NextPlayer(activePlayer);\n    }\n\n    function getBoard() public view returns(address[3][3] memory) {\n        return board;\n    }\n\n    //win game\n    function setWinner(address payable player) private {\n        gameActive = false;\n        //emir an event\n        emit GameOverWithWin(player);\n        uint balanceToPayOut = address(this).balance;\n        //tranfer money to winner\n        //if receiver is another contanct,then \"send\" will fail\n        if(player.send(balanceToPayOut) != true){\n            if(player == player1){\n                balanceToWithdrawPlayer1 = balanceToPayOut;\n            } else {\n                balanceToWithdrawPlayer2 = balanceToPayOut;\n            }\n        } else {\n            emit PayOutSuccess(player, balanceToPayOut);\n        }\n        //player.transfer(address(this).balance);\n    }\n\n    function withdrawWin() public {\n      uint balanceToTransfer;\n        if(msg.sender == player1){\n            require(balanceToWithdrawPlayer1 > 0);\n            balanceToTransfer = balanceToWithdrawPlayer1;\n            balanceToWithdrawPlayer1 = 0;\n            player1.transfer(balanceToTransfer);\n\n            emit PayOutSuccess(player1, balanceToTransfer);\n        } else {\n            require(balanceToWithdrawPlayer2 > 0);\n            balanceToTransfer = balanceToWithdrawPlayer2;\n            balanceToWithdrawPlayer2 = 0;\n            player1.transfer(balanceToTransfer);\n            emit PayOutSuccess(player2, balanceToTransfer);\n        }\n    }\n\n    //draw game\n    function setDraw() private {\n        gameActive = false;\n        emit GameOverWithDraw();\n        uint balanceToPayOut = address(this).balance/2;\n\n        if(player1.send(balanceToPayOut) == false){\n            balanceToWithdrawPlayer1 += balanceToPayOut;\n        }else {\n            emit PayOutSuccess(player1, balanceToPayOut);\n        }\n        if(player2.send(balanceToPayOut) == false){\n            balanceToWithdrawPlayer2 += balanceToPayOut;\n        }else {\n            emit PayOutSuccess(player2, balanceToPayOut);\n        }\n\n    }\n\n    function emergencyCashout() public {\n        require(gameValidUntil < now);\n        require(gameActive);\n        setDraw();\n    }\n\n\n    function setStone(uint8 x, uint8 y) public {\n        require(board[x][y] == address(0));\n        require(gameValidUntil > now);\n        assert(gameActive);\n        assert(x < boardSize);\n        assert(y < boardSize);\n        require(msg.sender == activePlayer);\n        board[x][y] = msg.sender;\n        moveCounter++;\n        gameValidUntil = now + timeToReact;\n\n        for(uint8 i = 0; i < boardSize; i++){\n            if(board[i][y] != activePlayer){\n                break;\n            }\n            //win\n            if(i == boardSize - 1) {\n                //winner\n                setWinner(activePlayer);\n                return;\n            }\n        }\n\n        for(uint i = 0; i < boardSize; i++){\n            if(board[x][i] != activePlayer){\n                break;\n            }\n            //win\n            if(i == boardSize - 1) {\n                //winner\n                setWinner(activePlayer);\n                return;\n            }\n        }\n\n        //diagonale\n        if(x == y) {\n            for(uint i = 0; i < boardSize; i++){\n                if(board[i][i] != activePlayer){\n                    break;\n                }\n                //win\n                if(i == boardSize - 1) {\n                    //winner\n                    setWinner(activePlayer);\n                    return;\n                }\n            }\n        }\n\n        //anti-diagonale\n        if((x+y) == boardSize - 1) {\n            for(uint i = 0; i < boardSize; i++){\n                if(board[i][(boardSize - 1) - i] != activePlayer){\n                    break;\n                }\n                //win\n                if(i == boardSize - 1) {\n                    //winner\n                    setWinner(activePlayer);\n                    return;\n                }\n            }\n        }\n\n        //draw\n        if(moveCounter == (boardSize**2)){\n            //over\n            setDraw();\n            return;\n        }\n\n        if(activePlayer == player1) {\n            activePlayer = player2;\n        }else {\n            activePlayer = player1;\n        }\n        emit NextPlayer(activePlayer);\n    }\n}\n",
  "sourcePath": "/Users/ruilinwang/truffle-init-webpack/contracts/TicTacToe.sol",
  "compiler": {
    "name": "solc",
    "version": "0.5.0+commit.1d4f565a.Emscripten.clang"
  },
  "schemaVersion": "3.4.3",
  "updatedAt": "2021-11-15T03:28:00.807Z",
  "devdoc": {
    "methods": {}
  },
  "userdoc": {
    "methods": {}
  }
}